:020000040800F2
:10000000D808002029350008090700080B07000858
:100010000F0700081307000817070008000000007A
:100020000000000000000000000000001B070008A6
:100030001D070008000000001F0700082107000836
:1000400043350008433500084335000843350008B0
:1000500043350008433500084335000843350008A0
:100060004335000843350008433500084335000890
:100070004335000843350008433500084335000880
:100080004335000843350008433500084335000870
:100090004335000843350008433500084335000860
:1000A0004335000843350008433500084335000850
:1000B000A50D000843350008433500084335000806
:1000C0004335000843350008433500084335000830
:1000D00043350008D7100008050B00084335000819
:1000E000433500084335000843350008DFF80CD0DD
:1000F00003F03CFE0048004779020008D8080020C1
:100100002DE9F0410546002D07D0FEA1284603F059
:100110002FFA18B10020FC490860ABE0FBA128468B
:1001200003F026FA18B10120F7490860A2E0F9A10E
:10013000284603F01DFA20B10020F349091F08608A
:1001400098E0F5A1284603F013FA20B10120EE490A
:10015000091F08608EE0F2A1284603F009FA20B1D9
:100160000020E9490839086084E0EEA1284603F040
:10017000FFF920B10120E449083908607AE0EBA1D9
:10018000284603F0F5F948B10020DF490860E94945
:10019000C1F89C01DC49083908606BE0E6A12846FB
:1001A00003F0E6F948B10120D7490860E149C1F8F8
:1001B0009C01D549083908605CE0E1A1284603F0BC
:1001C000D7F908B1BDE8F081DEA1284603F0D0F9E7
:1001D000F0B300BF00F037FDDAA1284603F0C8F9FC
:1001E0000446641C2078303800EB800040004FF457
:1001F0006161484361783039C1EB4112C2EB0121A2
:1002000000EB01101FFA80F8E078303800EB800036
:100210004000C0EB0010810020793038C0EB0010A6
:1002200001EB800086B2E0793038A179303901EBFA
:10023000810100EB410087B208EB06003844C24957
:10024000088008460088002813DD0846008800E082
:1002500010E005280ADC0020AB49103108600A20B4
:1002600000F053FD0120B349C1F8B0010120B749A6
:10027000087000BF00BFA5E7BEB0B5483D90B548C7
:100280003C9000203B9003203A900020209000F00A
:10029000C1FC00F0EBFC00F005FD4FF4A06001F0A4
:1002A000F1F84FF4E13000F0C5FE4FF4E13000F01A
:1002B00095FF41F61F4142F20F7000F041FD00F042
:1002C00013FE012000F02EFDA7E13B9801287DD10F
:1002D0000020A14908603A98002878D13D9803F0A1
:1002E00031FBCDE91C019D49088803F00DFB8346D5
:1002F00003F028FB4FF06632994BCDE9160103F06D
:1003000022FA0022974BCDE9180103F08EFACDE9CD
:100310001A01DDE91C2303F016FACDE91E0103F0F2
:1003200055FB05463D9803F00DFBCDE91C018B49BB
:10033000488803F0E9FA834603F004FB4FF0663285
:10034000874BCDE9160103F0FEF90022854BCDE97C
:10035000180103F06AFACDE91A01DDE91C2303F064
:10036000F2F9CDE91E0103F031FB06463D9803F09A
:10037000E9FACDE91C017949888803F0C5FA83467A
:1003800003F0E0FA4FF06632754BCDE9160103F049
:10039000DAF90022734BCDE9180103F046FACDE9F2
:1003A0001A01DDE91C2303F0CEF9CDE91E0103F0AB
:1003B0000DFB0746284603F0C5FA6B4A6B4BCDE9A7
:1003C0001E0103F0D3FA00D2002501E01DE118E17F
:1003D000304603F0B7FA644A644BCDE91E0103F0DE
:1003E000C5FA00D20026384603F0ACFA5E4A5F4BED
:1003F000CDE91E0103F0BAFA00D200273C9803F0C1
:10040000A1FACDE91C015549C88803F07DFA83465D
:1004100003F098FA4FF06632514BCDE9160103F024
:1004200092F900224F4BCDE9180103F0FEF9CDE916
:100430001A01DDE91C2303F086F9CDE91E0103F062
:1004400068FA0446204603F05FFA29461F9003F03D
:100450000AF98346464903F038F98046204603F0FE
:1004600053FA31461F9003F0FEF88346404903F0EB
:100470002CF98146204603F047FA39461F9003F0D5
:10048000F2F883463A4903F020F982464FF480712E
:10049000384801F065F9384908708021354801F085
:1004A0005FF9364908704021324801F059F9344962
:1004B00008700A2C00D200243248007801287DD12F
:1004C000484603F03FFACDE91E01304603F03AFA00
:1004D000CDE91C01404603F035FACDE91A01284662
:1004E00003F030FACDE91801504603F02BFACDE9BC
:1004F0001601384603F026FACDE914011F480078AA
:100500001D4941E04F4E3100A08121424F46463106
:10051000000000004F4E32004F46463200000000FF
:100520004F4E33004F464633000000004F4E5F41B0
:100530004C4C0000008021424F46465F414C4C002D
:1005400052000000540000000400002007000020BA
:10055000CDCCAC400080A043B40122420C0000206E
:1005600066660A400000B0409A9999999999A93F06
:1005700000007A44000C014001000020020000202D
:1005800003000020060000200978574A1278CDE9C0
:100590001042CDE91210DDE91E01CDE90E01DDE9C1
:1005A0001C010A94CDE90C01DDE91A01CDE908012D
:1005B000DDE918010494CDE9060100E019E0DDE968
:1005C0001601CDE90201DDE91401CDE9000147483A
:1005D0000288474921A803F00DFC21A802F0E4FF9E
:1005E00000F0FF0B594621A800F025F900204149F1
:1005F00008700A2000F065F920902098FFF780FD30
:100600000BE000F038F93A9007E001203A49086021
:1006100000F088F808B901203B9056E62DE9F84F24
:1006200081460D4614461E46DDE90AAB294648467A
:1006300002F0C1FF0746214602F0BDFF009000987E
:1006400003F080F9074600222C4B03F0A7F913D2E0
:1006500000202B490860142000F057FB0120294995
:10066000C1F8B001002026490860142000F04DFBBD
:1006700001202449C1F8B0010021484603F0C2F925
:100680000BD156B900201E490860012000F04AFB3A
:1006900001201C49C1F8B00124E00021284603F0E4
:1006A000B1F90DD1BAF1000F0AD100201449086048
:1006B000012000F037FB01201249C1F8B00111E020
:1006C0000021204603F09EF90CD1BBF1000F09D1A7
:1006D00000200B490860012000F024FB012009499B
:1006E000C1F8B001BDE8F88F03000020040000202D
:1006F0006047000806000020B40122420000E83FE5
:10070000B081214200802142704700BFFEE700BF58
:10071000FEE700BFFEE700BFFEE770477047704787
:100720007047000010B57C4890F83C00C0F383008F
:10073000062874D2DFE800F0031A2B40516200F063
:10074000D6F9082175A000F0A3F9962000F0DDFA93
:10075000754976A003F03EFB00F0C9F96E48808F22
:1007600020F03C00001D6C49888758E07FA003F012
:1007700031FB322281A182A000F0E4F930B9664851
:10078000808F20F03C0008306349888747E07EA0D6
:1007900003F020FB322279A180A000F0D3F930B918
:1007A0005D48808F20F03C000C305B4988874FF417
:1007B000FA7000F0AAFA32E07BA003F00BFB3222C1
:1007C0006EA17FA000F0BEF930B95348808F20F0B1
:1007D0003C0010305049888721E07DA003F0FAFAF0
:1007E000322266A180A000F0ADF930B94A48808F6E
:1007F00020F03C0014304849888710E07EA003F0C8
:10080000E9FA32225DA184A000F09CF930B9424897
:10081000808F20F03C0018303F49888700BF00BF20
:100820003D4890F83C00C0F38300062801D1002029
:1008300010BD0120FCE730B58BB005460C462821E1
:1008400001A802F08AFE224679A101A803F0D2FA9B
:1008500032227CA101A800F075F910B101200BB083
:1008600030BD322278A1284600F06CF908B1012091
:10087000F5E70020F3E710B564240E2174A000F022
:1008800007F912E000F01EF960B975A1264802F0E0
:100890006FFE18B100207549087002E0032073490B
:1008A000087006E0022000F030FA601EC0B2041E9C
:1008B000E8D100BF14B902206C4908706B48007879
:1008C00010BD70B50546002400BF00F0FBF8C8B9A4
:1008D00067A1154802F04CFE044624B965A16A4898
:1008E00000F055F90EE03A21204602F053FE04468E
:1008F00034B1641C214665A003F06CFA204670BD3B
:100900000020FCE7052000F000FA281EA5F10101F7
:100910008DB2DAD100BFF2E74800002041542B47E6
:100920004D520D0A000000008A0000200D0A2A2AFC
:100930002A2A2A2A2A2A2A2A2A2A2A2A2A2A2A2A17
:100940002A2A2A2A2A2A2A2A0D0A25730D0A2A2A3D
:100950002A2A2A2A2A2A2A2A2A2A2A2A2A2A2A2AF7
:100960002A2A2A2A2A2A2A2A0D0A0000415020541B
:100970006970733A0941540D0A0000004F4B0000A2
:1009800041540D0A00000000415020546970733A30
:100990000941542B5253540D0A00000041542B526C
:1009A00053540D0A00000000415020546970733AFE
:1009B0000941542B43574D4F44453D320D0A000029
:1009C00041542B43574D4F44453D320D0A00000022
:1009D000415020546970733A0941542B4349504D9A
:1009E00055583D310D0A000041542B4349504D5597
:1009F000583D310D0A000000415020546970733A8F
:100A00000941542B4349505345525645523D312CD0
:100A10003838380D0A00000041542B4349505345E3
:100A2000525645523D312C3838380D0A000000002E
:100A300041542B43495053454E443D302C25640DC1
:100A40000A0000003E00000053454E44204F4B007A
:100A500041542B4349505354415455530D0A0000FF
:100A60002B4349505354415455533A000000002041
:100A7000495044002249504422206E6F7420666F12
:100A8000756E640D0A0000000038014025730D00EA
:100A900070B504460D46002611E040215B4801F088
:100AA00096FA14F8011B594801F016FA00BF4021CC
:100AB000564801F07FFA0028F9D0701C86B2AE4289
:100AC000EBDB70BD5248008808B9012070475048E0
:100AD00000884F494988884203D100204C4908804A
:100AE000F4E74B4800884A4948800120EEE710B5FA
:100AF0000020474908804FF4FA714548001D02F074
:100B00002CFD10BD10B540F22551404801F068FAA7
:100B1000B8B13F480088B0F5FA7F02D300203C49C5
:100B200008803A48001D0088C1B239480288008810
:100B3000401C374B1880181D81542021334801F088
:100B400046FA10BD2DE9F04105460E4614462846EA
:100B500002F02AFD87B239462846FFF799FF10E0D8
:100B6000FFF7B0FF50B931462948001D02F000FDE3
:100B700020B1FFF7BCFF0020BDE8F0810A2000F0A3
:100B8000C4F8201EA4F10104EAD10120F4E70FB457
:100B900030B5CBB0054601AC50A8009001A8009A32
:100BA0004F9903F051F9002000900BE014F8011B5D
:100BB000284601F091F900BF4021284601F0FAF9DA
:100BC0000028F9D020780028F0D14BB030BC5DF877
:100BD00014FB2DE9F04107460C461546002611E0AE
:100BE00040210A4801F0F3F914F8011B384601F0DE
:100BF00073F900BF4021384601F0DCF90028F9D034
:100C0000701C86B2AE42EBDBBDE8F08100440040D0
:100C10008600002008B50121082000F0BDFF4FF438
:100C20008050ADF8000010208DF8030003208DF8EF
:100C3000020069460A4800F0F3FC4FF4805108486E
:100C400000F09BFD08BD10B5002006490860642037
:100C500000F05BF801200449C1F8B00110BD0000AC
:100C6000000C0140B08121420080214208B50121E1
:100C7000102000F091FF4FF40050ADF8000010205C
:100C80008DF8030003208DF802006946044800F047
:100C9000C7FC4FF40051024800F06FFD08BD000092
:100CA0000010014008B50121082000F075FF4FF445
:100CB000E070ADF8000010208DF8030003208DF8DF
:100CC00002006946044800F0ABFC4FF4E0710248B2
:100CD00000F053FD08BD0000000C014000EBC00116
:100CE000C9004FF0E022516100219161052111619D
:100CF00000BF4FF0E021096901F480310029F8D0EC
:100D000004214FF0E0221161704700B5034603E073
:100D10004FF47A70FFF7E2FF181EA3F101018BB2C6
:100D2000F6D100BD10B5044603E04FF47A70FFF72A
:100D3000ECFF201EA4F101018CB2F6D110BD000021
:100D40007FB505460C460121084600F032FFADF89C
:100D50000850ADF804400020ADF80A00ADF80600D8
:100D600001A94FF0804001F07BFC01221146900761
:100D700001F0EDFF4FF4A06000F084FB1C208DF823
:100D8000000001208DF8010003208DF802000120F1
:100D90008DF80300684600F07AFB0121880701F016
:100DA000BBFF7FBD10B50121880702F07EFA002845
:100DB00032D00121880702F089FA18480088401CC7
:100DC0001649088008460088022804DB00200880B5
:100DD0000120134908701348007801281CD11248DB
:100DE0000088401C1049088010480088002804DD55
:100DF0000E480088401E0D4908800C48008858B9EC
:100E00000020084908700120094908600949C1F813
:100E10009C0107490839086010BD00000A00002045
:100E20000600002007000020080000200400002029
:100E3000A08121420080214200B58BB05D4802F0C4
:100E400049FA5D4800905D4801900020029004201E
:100E500003900020049080200590400006908000C0
:100E60000790202008900002099000200A9069460F
:100E7000504802F0D1FA01214E4802F0F8FA0BB0C6
:100E800000BD08B501214FF4017000F085FE01217D
:100E9000084600F074FE0120ADF8000000208DF837
:100EA00003006946464800F0BBFB0220ADF8000095
:100EB00000208DF803006946414800F0B1FB102086
:100EC000ADF8000000208DF8030069463C4800F0B2
:100ED000A7FB4020ADF8000000208DF80300694614
:100EE000374800F09DFB08BD00B585B04FF40040C9
:100EF00000F0B6FDFFF7C5FFFFF79EFF2E484C3808
:100F000001F0B2F80020009001208DF804008DF867
:100F100005004FF4602002900020039004208DF81B
:100F20001000694624484C3801F0C5F80723012217
:100F3000002121484C3801F056F9072302220121F3
:100F40001D484C3801F04FF90723032204211A48A9
:100F50004C3801F048F907230422062116484C3882
:100F600001F041F9012114484C3801F0DBF801216E
:100F700011484C3801F0CBF80F484C3801F0E9F833
:100F800000BF0D484C3801F0E9F80028F9D10A48B3
:100F90004C3801F0EDF800BF07484C3801F0EDF88F
:100FA0000028F9D1012104484C3801F0F0F805B0CF
:100FB00000BD0000080002404C2401400C0000204D
:100FC00000080140014600BF704700BFAD4A1288CB
:100FD00002F04002002AF9D0C2B2AA4B1B1D1A80AF
:100FE00070470FB410B5B4B0002437A80090C921E1
:100FF00001A8009B369A02F011FF0EE02046621C09
:10100000D4B201AA115C9F4800F066FF00BF4021E6
:101010009C4800F0CFFF0028F9D0C82C04DA01A8C2
:1010200002F0C2FAA042E9D80020009034B010BC0F
:101030005DF814FB10B586B00446012144F20400AB
:1010400000F0AAFD4FF40070ADF8140003208DF8F5
:10105000160018208DF8170005A98B4800F0E0FA5B
:101060004FF48060ADF8140004208DF8170005A936
:10107000854800F0D5FA01940020ADF80800ADF8DD
:101080000A00ADF80C00ADF810000C20ADF80E0011
:1010900001A97C4800F027FE012240F22551794841
:1010A00000F0B9FE0121774800F0A9FE4FF4A060DE
:1010B00000F0E8F925208DF8000001208DF80100EE
:1010C00003208DF8020001208DF80300684600F02F
:1010D000DEF906B010BD10B5002440F22551694874
:1010E00000F068FF012844D1664800F0F9FE53285B
:1010F00002D1012065490870624800F0F1FE7328B2
:1011000002D10020614908705E4800F0E9FE09281C
:101110000FD100205E49087001205E49087000244C
:1011200004E000205C490855601CC4B2642CF8DB64
:101130001FE05748007840B9002404E000205749D8
:101140000855601CC4B2642CF8DB4E4800F0C8FEA1
:1011500051494F4A1278885408464D490978405CF5
:101160004E494B4A1278885449480078401C4849F7
:10117000087040F22551434800F032FF20B140F2A0
:101180002551404800F056FF10BD0FB410B5B4B063
:10119000002437A80090C92101A8009B369A02F0CC
:1011A0003DFE0EE02046621CD4B201AA115C3C4810
:1011B00000F092FE00BF4021394800F0FBFE0028FD
:1011C000F9D0C82C04DA01A802F0EEF9A042E9D85F
:1011D0000020009034B010BC5DF814FB10B586B050
:1011E00004460121042000F0D7FC0121480400F04E
:1011F000E0FC0420ADF8140003208DF81600182040
:101200008DF8170005A9204800F00AFA0820ADF86B
:10121000140004208DF8170005A91B4800F000FAFF
:1012200001940020ADF81000ADF80800ADF80A00F8
:10123000ADF80C00ADF810000C20ADF80E0001A9BF
:10124000174800F050FD012240F22551144800F0EB
:10125000E2FD0121124800F0D2FD4FF4A06000F041
:1012600011F926208DF8000001208DF801000320DF
:101270008DF8020001208DF80300684600F007F9A0
:1012800006B010BD003801400008014015000020E4
:1012900014000020160000207E020020E202002040
:1012A000004400400CB50020019000906C4800689C
:1012B00040F480306A49086000BF6948006800F463
:1012C000003000900198401C0190009818B90198D6
:1012D000B0F5A06FF1D16248006800F4003010B1A1
:1012E0000120009001E0002000900098012843D1E7
:1012F0005C48006840F010005A49086008460068E1
:1013000020F0030008600846006840F00200086012
:10131000534840685249486008464068486008465B
:10132000406840F4806048600846406820F47C10C3
:1013300048600846406840F4E81048600846006885
:1013400040F08070086000BF4548006800F0007001
:101350000028F9D04248406820F003004049486026
:101360000846406840F00200486000BF3C484068C2
:1013700000F00C000828F9D10CBD10B5FFF792FF62
:1013800010BD10B53648006840F0010034490860CF
:1013900008464068344908403149486008460068BA
:1013A000324908402E4908600846006820F4802031
:1013B00008600846406820F4FE0048604FF41F00B3
:1013C0008860FFF7DAFF4FF000602949086010BD20
:1013D00010B5002100200022214B5B6803F00C01B6
:1013E00021B1042906D0082928D107E0214B224C3D
:1013F000236027E01F4B204C236023E0184B5B68E1
:1014000003F47010164B5B6803F48032022303EB85
:10141000904022B9194B4343174C23600DE0104B09
:101420005B6803F4003323B1144B4343124C236035
:1014300003E0104B4343104C236003E00D4B0E4C74
:10144000236000BF00BF064B5B68C3F303130C4C63
:10145000E15C094B1B68CB40074C236010BD0000CA
:1014600000100240002002400000FFF8FFFFF6FEDF
:1014700008ED00E000127A002000002000093D0085
:101480002400002031490143314A1160704770B592
:10149000002100230F22C47804B32D4C246804F4E7
:1014A000E064C4F5E064210AC1F10403CA40447851
:1014B00004FA03F18478144021430901254C06788D
:1014C000A155047804F01F050124AC4005786D1186
:1014D000AD0005F1E025C5F8004109E0047804F00D
:1014E0001F050124AC401C4D0678761145F82640B6
:1014F00070BD1A4A0A400243154B1B1F1A60704701
:1015000039B1134A121D12680243114B1B1D1A6098
:1015100006E00F4A121D126882430D4B1B1D1A6014
:101520007047042808D14FF0E021096941F0040117
:101530004FF0E022116107E04FF0E021096921F04E
:1015400004014FF0E0221161704700000000FA052D
:101550000CED00E000E400E080E100E080FFFF1F10
:1015600010B50446CC48844208D10121042000F083
:101570002DFB0021042000F029FB46E0C7488442EF
:1015800008D10121082000F021FB0021082000F0F3
:101590001DFB3AE0C248844208D10121102000F02E
:1015A00015FB0021102000F011FB2EE0BD48844205
:1015B00008D10121202000F009FB0021202000F0AB
:1015C00005FB22E0B848844208D10121402000F008
:1015D000FDFA0021402000F0F9FA16E0B3488442F9
:1015E00008D10121802000F0F1FA0021802000F0D4
:1015F000EDFA0AE0AE48844207D10121801500F0DF
:10160000E5FA0021A01500F0E1FA10BD10B50121A6
:10161000084600F0DBFA0021012000F0D7FA10BDE7
:101620002DE9F04102460025002600200023002479
:10163000002791F803C00CF00F0591F803C00CF0DF
:10164000100CBCF1000F03D091F802C04CEA050564
:1016500091F800C0BCF1000F31D0146800202BE0DD
:101660004FF0010C0CFA00F3B1F800C00CEA0306CD
:101670009E4220D183004FF00F0C0CFA03F7BC43BD
:1016800005FA03FC4CEA040491F803C0BCF1280FEE
:1016900006D14FF0010C0CFA00FCC2F814C00AE0AD
:1016A00091F803C0BCF1480F05D14FF0010C0CFAC2
:1016B00000FCC2F810C0401C0828D1D31460B1F857
:1016C00000C0BCF1FF0F34DD546800202EE000F1B3
:1016D000080C4FF0010808FA0CF3B1F800C00CEA4E
:1016E00003069E4221D183004FF00F0C0CFA03F742
:1016F000BC4305FA03FC4CEA040491F803C0BCF1B6
:10170000280F05D100F1080C08FA0CF8C2F8148073
:1017100091F803C0BCF1480F07D100F1080C4FF05D
:10172000010808FA0CF8C2F81080401C0828CED333
:101730005460BDE8F0814FF6FF7101800221817095
:101740000421C17070470246002093680B400BB122
:10175000012000E0002070470146886880B2704791
:1017600002460020D3680B400BB1012000E00020AE
:1017700070470146C86880B2704701617047416197
:1017800070470AB1016100E041617047C160704774
:101790004FF480320A438261816182618269826989
:1017A000704702460020434B18684FF6807318407C
:1017B00040EA021008433F4B186070473E49C86139
:1017C0007047F0B50A46002300240021002500F0F0
:1017D0000046B6F1004F02D1364EF16901E0354EB8
:1017E0007168C0F3034583B200F44016B6F5401F9C
:1017F00008D121F070612F4E766826F070662D4F6B
:101800007E6012E000F48016B6F5801F06D1032634
:1018100006FA05F4A14341F0706106E0460D360179
:1018200003FA06F6B14341F0706122B1460D36016C
:1018300003FA06F6314300F00046B6F1004F02D13C
:101840001C4EF16101E01B4E7160F0BD30B500220D
:101850008B071C0F0F2303FA04F2164B08338C106E
:1018600053F824309343134C08348D1044F825303A
:1018700023468C1053F824308C07240F00FA04F40C
:1018800023430C4C08348D1044F8253030BD0A49F0
:10189000DC3108607047000000080140000C014086
:1018A000001001400014014000180140001C0140DC
:1018B000002001400000014000002042DF48006895
:1018C00040F00100DD49086008464068DC490840F6
:1018D000DA49486008460068DA490840D749086094
:1018E0000846006820F4802008600846406820F41C
:1018F000FE0048604FF41F0088607047CF490968B8
:1019000021F48031CD4A11601146096821F480210B
:101910001160B0F5803F03D0B0F5802F0ED106E006
:10192000C649096841F48031C44A116007E0C349DF
:10193000096841F4A021C14A116000E000BF00BF66
:10194000704710B501460022002300204A11012AE9
:1019500002D1BA4C236806E0022A02D1B74C236AAE
:1019600001E0B64C636A01F01F02012494401C4060
:101970000CB1012000E0002010BD38B5002000901F
:101980000024002500BF3120FFF7DBFF054600984B
:10199000401C00900098B0F5A06F01D0002DF2D04F
:1019A0003120FFF7CEFF08B1012400E000242046DB
:1019B00038BD01460020A14A106820F0F80040EA36
:1019C000C10010607047A0490860704702460020BF
:1019D0009A4B586820F47C1042EA01031843974B55
:1019E0005860704798490866704701460020934A3E
:1019F000506820F003000843506070478F484068EB
:101A000000F00C007047014600208C4A506820F01E
:101A1000F00008435060704701460020874A506834
:101A200020F4E06008435060704701460020834A7C
:101A3000506820F4605040EAC1005060704729B1FE
:101A40007E4A527A02437D4B5A7204E07B4A527AB4
:101A500082437A4B5A7270477B49D831086070478D
:101A600001460020754A506820F440400843506009
:101A700070470021714A20321170704A82F820109C
:101A8000012802D004280AD104E001216B4A203247
:101A9000117005E00521694A2032117000E000BF95
:101AA00000BF70476949086070476449096A01438B
:101AB000624A11627047654944390860704730B521
:101AC00000210022002400235C4D6D6805F00C010C
:101AD00021B1042905D0082923D105E05C4D05601A
:101AE00022E05B4D05601FE0544D6D6805F47012F7
:101AF000524D6D6805F48034022505EB92421CB905
:101B0000544D554305600BE04C4D6D6805F40035B0
:101B10001DB1504D5543056002E04D4D55430560E4
:101B200002E04B4D056000BF00BF444D6D6805F0FD
:101B3000F0010909484D6B5C0568DD4045603F4D8B
:101B40006D6805F4E061090A434D6B5C4568DD4052
:101B500085603A4D6D6805F46051C90A3E4D6B5C75
:101B60004568DD40C560354D6D6805F44041890B21
:101B70003A4D6B5CC568B5FBF3F5056130BD29B125
:101B80002E4A526902432D4B5A6104E02B4A526996
:101B900082432A4B5A61704729B1284A926902430D
:101BA000264B9A6104E0254A92698243234B9A614D
:101BB000704729B1214AD2690243204BDA6104E01F
:101BC0001E4AD26982431D4BDA61704729B11B4A14
:101BD000D2680243194BDA6004E0184AD2688243A3
:101BE000164BDA60704729B1144A12690243134B4D
:101BF0001A6104E0114A12698243104B1A6170475E
:101C000012494039086070470F49C86470470B4952
:101C1000C87170470948406A40F0807007494862BF
:101C2000704701460020054A92680A400AB1012027
:101C300000E00020704701498872704700100240A0
:101C40000000FFF8FFFFF6FE00004242800442421F
:101C500000127A0000093D003400002044000020FA
:101C600010B50446FB48844209D101218803FFF7DF
:101C7000ADFF00214FF48040FFF7A8FF32E0F648A7
:101C8000844209D101214804FFF7ADFF00214FF440
:101C90000030FFF7A8FF25E0F048844209D1012178
:101CA0008804FFF7A0FF00214FF48020FFF79BFF7F
:101CB00018E0EB48844209D10121C804FFF793FFE3
:101CC00000214FF40020FFF78EFF0BE0E54884422F
:101CD00008D101210805FFF786FF00214FF480108D
:101CE000FFF781FF10BD2DE9F04786B005460E468F
:101CF0000024A24600BFA1460027B08900B100BF62
:101D00002F462C8A4CF6FF700440F08804432C8246
:101D1000AC894EF6F3100440B088318908437189CC
:101D200008430443AC81AC8A4FF6FF400440B089BD
:101D30000443AC8201A8FFF7C2FEC648874202D125
:101D4000DDF810A001E0DDF80CA0A88900F4004047
:101D500040B10AEBCA0000EB0A1031684900B0FB41
:101D6000F1F807E00AEBCA0000EB0A1031688900BD
:101D7000B0FBF1F86420B8FBF0F004012009642105
:101D800001FB1089A88900F4004040B1322000EB2B
:101D9000C900B0FBF1F000F00700044308E0322076
:101DA00000EB09106421B0FBF1F000F00F000443D8
:101DB0002C8106B0BDE8F0874FF416510160002178
:101DC0008180C18001810C21418100218181704786
:101DD00010B502460020108A4FF2FF0318400B880E
:101DE0004C8823438C882343CC8823431843108298
:101DF00010BD0021018041808180C180704721B1E8
:101E0000828942F40052828104E082894DF6FF7398
:101E10001A4082817047F0B5034600240026002551
:101E2000002040F66A17B94200D100BF1846C1F33E
:101E3000421401F01F06012707FA06F5012C01D113
:101E40000C3004E0022C01D1103000E014301AB143
:101E500007682F43076002E00768AF430760F0BDE3
:101E60001AB1838A0B43838202E0838A8B43838285
:101E70007047028A4FF6F0731A400282028A0A43C0
:101E80000282704782894FF2FF731A4082818289F1
:101E90000A438281704721B1828942F00202828125
:101EA00004E082894FF6FD731A4082817047028AEE
:101EB0004FF6DF731A400282028A0A430282704799
:101EC00021B1028A42F48042028204E0028A4BF687
:101ED000FF731A4002827047C1F308028280704784
:101EE00001468888C0F308007047818941F00101EC
:101EF00081817047028BD2B20283028B42EA0122B7
:101F000002837047028B02F47F420283028B0A43F2
:101F10000283704721B1828A42F02002828204E06B
:101F2000828A4FF6DF731A408282704721B1828A1B
:101F300042F01002828204E0828A4FF6EF731A4068
:101F40008282704721B1828A42F00802828204E0D4
:101F5000828A4FF6F7731A408282704721B18289D4
:101F600042F40042828103E08289C2F30E02828140
:101F7000704721B1828A42F40062828204E0828A40
:101F80004FF2FF731A4082827047828A4FF6FB73CA
:101F90001A408282828A0A438282704721B1828AF1
:101FA00042F00202828204E0828A4FF6FD731A40F8
:101FB0008282704702460020B1F5007F00D100BF49
:101FC00013880B400BB1012000E00020704701F4A2
:101FD0000072B2F5007F00D100BFCA430280704793
:101FE00070B50246002400230025002040F66A1642
:101FF000B14200D100BFC1F3421501F01F03012619
:1020000006FA03F3012D02D19689334006E0022D32
:1020100002D1168A334001E0968A33400C12012621
:1020200006FA04F41688344013B10CB1012000E024
:10203000002070BD10B50022002340F66A14A142B2
:1020400000D100BF0A1201249440A3B2DC430480F3
:1020500010BD00000038014000440040004800402E
:10206000004C00400050004010B50446FA4884423D
:1020700008D101214015FFF7A9FD00216015FFF7E8
:10208000A5FD17E0F548844208D101210015FFF7AE
:102090009DFD00212015FFF799FD0BE0F0488442DB
:1020A00008D10121C803FFF791FD00214FF4004042
:1020B000FFF78CFD10BD30B50246002000235068AC
:1020C000E84C20400D790C6844EA05242043506018
:1020D0009068E54C2040D1E902542C434D7944EA04
:1020E000450420439060D06A20F470000C7C641E8C
:1020F000E4B2234340EA0350D06230BD00210160C6
:10210000017141718160C16001210174704721B189
:10211000826842F00102826003E0826822F00102DC
:102120008260704721B1826842F48072826003E06D
:10213000826822F480728260704710B50023CBB2AF
:102140001AB144681C43446002E044689C43446004
:1021500010BD816841F00801816070470146002090
:102160008A6802F008020AB1012000E000207047EE
:10217000816841F0040181607047014600208A684F
:1021800002F004020AB1012000E00020704721B1F2
:10219000826842F4A002826003E0826822F4A00216
:1021A00082607047014600208A6802F480020AB10A
:1021B000012000E00020704710B50A4600210023EE
:1021C000416821F46041531E41EA4331416010BD32
:1021D00021B1426842F40062426003E0426822F4A6
:1021E000006242607047F0B504460D4600200021B1
:1021F000092D11DDE068A5F10A0606EB4607072662
:1022000006FA07F18843A5F10A0606EB460603FA2B
:1022100006F10843E0600CE0206905EB450707265E
:1022200006FA07F1884305EB450603FA06F1084371
:102230002061072A0FDA606B561E06EB86071F2601
:1022400006FA07F18843561E06EB860605FA06F1E4
:102250000843606322E00D2A0FDA206BD61F06EBDD
:1022600086071F2606FA07F18843D61F06EB860667
:1022700005FA06F10843206310E0E06AA2F10D06BA
:1022800006EB86071F2606FA07F18843A2F10D0622
:1022900006EB860605FA06F10843E062F0BD21B1BF
:1022A000826842F48012826003E0826822F4801225
:1022B000826070470146C86C80B2704766484C30F7
:1022C0000068704721B1426842F48062426003E0D6
:1022D000426822F480624260704721B1426842F451
:1022E0008052426003E0426822F4805242607047AC
:1022F0000A460021816821F4E04111438160704762
:1023000021B1826842F40042826003E0826822F4D4
:1023100000428260704721B1826842F402128260FA
:1023200003E0826822F402128260704701460020B6
:102330008A6802F400120AB1012000E00020704710
:10234000F0B504461546002000220026092911DDBB
:10235000E068A1F10A0707EB470C072707FA0CF220
:102360009043A1F10A0707EB470703FA07F210436E
:10237000E0600CE0206901EB410C072707FA0CF242
:10238000904301EB410703FA07F210432061A06B71
:10239000C0F30156EF1C06F1010CA7EB0C0707EB8D
:1023A000870C1F2707FA0CF29043EF1C06F1010C73
:1023B000A7EB0C0707EB870701FA07F21043A063AE
:1023C000F0BD10B50A4600210023816B21F44011B5
:1023D000531E41EA0351816310BD08B500230093E9
:1023E0000090009B0B440093009B1A6008BD08B549
:1023F000024600200090009201F12800009B184442
:1024000000900098006880B208BD0A46002141682B
:10241000164B194011434160704741628262704718
:102420000A460021416821F01F01114341607047B5
:1024300040B109490831096841F40001064A0832EF
:10244000116007E004490831096821F40001024ADB
:10245000083211607047000000240140002801404C
:10246000003C0140FFFEF0FFFDF7F1FFFFFD3FFFE5
:102470000246002013680B400BB1012000E0002051
:102480007047CA430260704770B5024600200023BF
:1024900000240B125568CEB205EA060415681D40EB
:1024A00015B10CB1012000E0002070BD00220A121D
:1024B000D34303607047000010B50446FE488442D1
:1024C00008D10121C014FFF781FB0021E014FFF7C0
:1024D0007DFBC4E0B4F1804F08D101210846FFF72D
:1024E00082FB00210120FFF77EFBB8E0F348844225
:1024F00008D101210220FFF776FB00210220FFF71F
:1025000072FBACE0EE48844208D101210420FFF7C1
:102510006AFB00210420FFF766FBA0E0E948844243
:1025200008D101210820FFF75EFB00210820FFF7FA
:102530005AFB94E0E448844208D101211020FFF7BF
:1025400052FB00211020FFF74EFB88E0DF48844259
:1025500008D101212020FFF746FB00212020FFF7B2
:1025600042FB7CE0DA48844208D101214014FFF7A5
:102570002DFB00216014FFF729FB70E0D548844251
:1025800009D10121C804FFF721FB00214FF40020ED
:10259000FFF71CFB63E0D048844209D10121080504
:1025A000FFF714FB00214FF48010FFF70FFB56E0FC
:1025B000CA48844209D101214805FFF707FB0021E1
:1025C0004FF40010FFF702FB49E0C548844208D1F0
:1025D00001214020FFF707FB00214020FFF703FB0C
:1025E0003DE0C048844208D101218020FFF7FBFA7A
:1025F00000218020FFF7F7FA31E0BB48844208D180
:1026000001218015FFF7EFFA0021A015FFF7EBFA83
:1026100025E0B648844209D101210804FFF7D6FA23
:1026200000214FF48030FFF7D1FA18E0B04884421F
:1026300009D101214804FFF7C9FA00214FF4003005
:10264000FFF7C4FA0BE0AB48844208D101218804AB
:10265000FFF7BCFA00214FF48020FFF7B7FA10BD56
:1026600000220288944B98420ED0994B98420BD08E
:10267000B0F1804F08D0914B984205D0904B9842D2
:1026800002D0904B984204D14FF68F731A404B887A
:102690001A438D4B984207D08C4B984204D04FF68A
:1026A000FF431A40CB881A4302808B8883850B88AE
:1026B0000385814B98420BD0854B984208D08B4BB9
:1026C000984205D08A4B984202D08A4B984201D159
:1026D0000B7A038601238382704770B500240022A1
:1026E0000023058C4FF6FE7635400584028C8388E6
:1026F000048B4FF68F752C40B51E2C400D882C4353
:10270000751E2A400D892A434D882A436A4DA842E6
:102710000BD06F4DA84208D0744DA84205D0744D1F
:10272000A84202D0734DA84213D14FF6F7752A4044
:102730004D892A434FF6FB752A408D882A434FF670
:10274000FF652B404FF6FF552B408D892B43CD89DC
:102750002B4383800483CD888586028470BD70B549
:10276000002400220023058C4FF6EF7635400584C7
:10277000028C8388048B48F6FF752C404FF6FF458A
:102780002C400D884FF6FF7606EA05252C434FF6C0
:10279000DF752A400D8906EA05152A434D8806EAA9
:1027A00005152A43444DA84202D0494DA8421DD1E7
:1027B0004FF67F752A404D894FF6FF7606EA0515DC
:1027C0002A434FF6BF752A408D8806EA05152A432D
:1027D0004FF6FF352B404FF2FF752B408D8906EAEF
:1027E00085052B43CD8906EA85052B438380048329
:1027F000CD880587028470BD70B5002400220023B7
:10280000058C4FF6FF6635400584028C8388848BE7
:102810004FF68F752C404FF6FC752C400D882C43DD
:102820004FF6FF552A400D894FF6FF7606EA05253B
:102830002A434D8806EA05252A431F4DA84202D0A7
:10284000234DA8421DD14FF2FF752A404D894FF606
:10285000FF7606EA05252A434FF6FF352A408D8884
:1028600006EA05252A434EF6FF752B404DF6FF7507
:102870002B408D8906EA05152B43CD8906EA0515FF
:102880002B4383808483CD888587028470BD70B597
:10289000002200230024058C4EF6FF763540058487
:1028A000038C8488828B48F6FF752A404FF6FF45DB
:1028B0002A400D8820E00000002C01400004004068
:1028C00000080040000C00400010004000140040D0
:1028D00000340140004C01400050014000540140D0
:1028E00000180040001C0040002000400040014053
:1028F00000440140004801404FF6FF7606EA0525F6
:102900002A434DF6FF752B400D8906EA05352B430A
:102910004D8806EA05352B43FA4DA84202D0FA4D00
:10292000A84208D14BF6FF752C408D894FF6FF76F3
:1029300006EA85152C4384808283CD88A0F8405018
:10294000038470BD828B4FF2FF331A408283828BE7
:102950004FF6FF7303EA01231A4382837047F0B5F1
:102960000C461546002200210026078C4EF6FF7CFF
:1029700007EA0C070784828B018C4FF6FF7707EA82
:10298000043640F6FF473A404FF6FF7707EA05273F
:102990003A434FF6FF7707EA03373A43D94FB84235
:1029A0000ED0D94FB8420BD0B0F1804F08D0D74FDE
:1029B000B84205D0D64FB84202D0D64FB84206D161
:1029C0004DF6FF77394046F48057394305E047F626
:1029D000FF57394044F48057394382830184F0BD66
:1029E000828B4FF6F3731A408283828B0A43828371
:1029F0007047F0B50C461546002200210026078CD2
:102A00004FF6FF6C07EA0C070784828B018C4FF6A8
:102A1000FF7707EA04264FF60C773A404FF6FF7728
:102A200007EA03172F433A43B64FB8420ED0B64FCA
:102A3000B8420BD0B0F1804F08D0B44FB84205D0A7
:102A4000B34FB84202D0B34FB84206D14FF6FF574A
:102A5000394046F48077394305E04FF2FF5739405B
:102A600044F48077394382830184F0BD028B4FF2B6
:102A7000FF331A400283028B4FF6FF7303EA0123F0
:102A80001A4302837047F0B50C4615460022002118
:102A90000026078C4FF6EF7C07EA0C070784028BB1
:102AA000018C4FF6FF7707EA041640F6FF473A40DD
:102AB0004FF6FF7707EA03373A434FF6FF7707EA07
:102AC00005273A438F4FB8420ED08F4FB8420BD0F4
:102AD000B0F1804F08D08D4FB84205D08C4FB8422E
:102AE00002D08C4FB84206D14FF6DF77394046F01E
:102AF0001007394305E04FF65F77394044F010077F
:102B0000394302830184F0BD028B4FF6F3731A4000
:102B10000283028B0A4302837047F0B50C461546C8
:102B200000220021068C4FF6FE773E400684028B81
:102B3000018C4FF60C7632407E1C06EA03162E43BB
:102B40003243704EB0420ED06F4EB0420BD0B0F157
:102B5000804F08D06D4EB04205D06D4EB04202D0CD
:102B60006C4EB04206D14FF6FD76314044F001067E
:102B7000314305E04FF6F576314044F0010631432C
:102B800002830184F0BD70B505460C465D48854260
:102B90000ED05D4885420BD0B5F1804F08D05B4820
:102BA000854205D05A48854202D05A48854200D114
:102BB00000E000BF208850B92389A2886188284698
:102BC000FFF7ABFFE1882846FFF79EFF25E020884E
:102BD00004280AD12389A28861882846FFF753FF79
:102BE000E1882846FFF742FF17E0208808280AD12D
:102BF0002389A28861882846FFF7FBFEE1882846E2
:102C0000FFF7EEFE09E02389A28861882846FFF7D6
:102C1000A6FEE1882846FFF795FE70BD2DE9F0413C
:102C200005460C4600260127608808B9022600E008
:102C30000026A088012801D1022700E00127208872
:102C4000A0B92389A28861882846FFF766FFE1883A
:102C50002846FFF759FF23893A4631462846FFF7B1
:102C600012FFE1882846FFF701FF13E02389A288BD
:102C700061882846FFF707FFE1882846FFF7F6FE40
:102C800023893A4631462846FFF747FFE188284620
:102C9000FFF73AFFBDE8F0810A884B881A438B881A
:102CA0001A43CB881A430B891A434B891A438B89E1
:102CB0001A43A0F8442070474FF6FF71818000212D
:102CC0000180C180418001727047002101804180F4
:102CD0008180C180018141818181C1817047002152
:102CE00001804180012181800021C18001817047E4
:102CF0000021018041808180C180018141818181E9
:102D000070470000002C01400034014000040040E6
:102D100000080040000C004021B1028842F001028E
:102D2000028004E002884FF6FE731A40028070476A
:102D300031B1B0F8442042F40042A0F8442005E04C
:102D4000B0F84420C2F30E02A0F8442070471AB134
:102D500083890B43838102E083898B43838170479E
:102D60008182704741EA0203A0F8483070471AB1E7
:102D700083890B43838102E083898B43838170477E
:102D800001894FF6F8721140018170470A4600210F
:102D900001894FF68F73194011430181704730B597
:102DA00004460D4629462046FFF7F0FF208940F0F3
:102DB0000700208130BD2DE9F04104460D4616463E
:102DC0001F46602D06D13B46012231462046FFF7C3
:102DD0005AFE05E03B46012231462046FFF79DFEA4
:102DE00029462046FFF7D2FF208940F007002081C6
:102DF000BDE8F08130B50C4600210189C9B24FF61B
:102E0000FF7505EA0325154325432943018130BD9C
:102E10002DE9F04105460E461746984600244346E4
:102E20003A4631462846FFF7E5FF2C894FF6F87001
:102E3000044044F007044FF68F70044044F07004DF
:102E40002C81BDE8F081F0B504460D4616461F46BC
:102E50003B46324629462046FFF7CCFF208940F406
:102E600080402081F0BD0185828270470A460021A2
:102E700001884FF68F731940114301807047F0B5F8
:102E80000C4615461E460021002200230189028BB4
:102E9000038C4FF6F877394021434FF6FC473A4010
:102EA00040F201173A434FF6DD773B404FF6FF778C
:102EB00007EA06172F433B43018102830384F0BDD9
:102EC0000A460021018B4FF68F731940114301838D
:102ED00070470A460021018B48F6FF7319404FF6F0
:102EE000FF7303EA02231943018370470A46002156
:102EF000818B4FF68F7319401143818370470A46C7
:102F00000021818B48F6FF7319404FF6FF7303EAE7
:102F1000022319438183704721B1028842F0800265
:102F2000028004E002884FF67F731A4002807047E7
:102F300021B1828842F00402828004E082884FF648
:102F4000FB731A408280704721B1828842F00802E8
:102F5000828004E082884FF6F7731A4082807047BF
:102F600021B1828842F00102828004E082884FF61B
:102F7000FE731A40828070470A460021018B4FF68B
:102F8000F77319401143018370470A460021018BF2
:102F90004FF2FF7319404FF6FF7303EA0223194300
:102FA000018370470A460021818B4FF6F773194061
:102FB0001143818370470A460021818B4FF2FF73D2
:102FC00019404FF6FF7303EA0223194381837047C8
:102FD0000A460021018B4FF6FB7319401143018310
:102FE00070470A460021018B4FF6FF3319404FF618
:102FF000FF7303EA02231943018370470A46002145
:10300000818B4FF6FB7319401143818370470A4649
:103010000021818B4FF6FF3319404FF6FF7303EA0F
:1030200002231943818370470A460021018B4FF622
:103030007F7319401143018370470A460021018BB9
:10304000C1F30E014FF6FF7303EA02231943018314
:1030500070470A460021818B4FF67F731940114358
:10306000818370470A460021818BC1F30E014FF620
:10307000FF7303EA02231943818370470A46002144
:10308000018C4FF6FD7319401143018470470A46C5
:103090000021018C4FF6F7731940114301847047EA
:1030A0000A460021018C4FF6DF7319404FF6FF737B
:1030B00003EA02131943018470470A460021018C78
:1030C0004FF67F7319404FF6FF7303EA021319435B
:1030D000018470470A460021018C4FF6FF531940C6
:1030E0004FF6FF7303EA02231943018470470A462F
:1030F0000021018C4FF2FF7319404FF6FF7303EA72
:1031000002231943018470470A460021018C4DF6C1
:10311000FF7319404FF6FF7303EA0233194301842A
:10312000704730B5002301248C40A3B2048C9C432B
:103130000484048C02FA01F5ADB22C43048430BD42
:1031400030B5002304248C40A3B2048C9C43048437
:10315000048C02FA01F5ADB22C43048430BD70B585
:103160000346002000241846183001258D40ACB2DB
:103170001D8CA5431D8409B1082909D100EB61000C
:10318000056825F0700505600568154305600EE0CB
:103190000D1FC5F34E052844056825F4E04505607C
:1031A00005684FF6FF7606EA02263543056070BDD6
:1031B00021B1028842F00202028004E002884FF648
:1031C000FD731A400280704721B1028842F0040268
:1031D000028004E002884FF6FB731A4002807047B9
:1031E00021B1828842F08002828004E082884FF61A
:1031F0007F731A408280704702884FF6F7731A4037
:10320000028002880A430280704782884FF68F73DB
:103210001A40828082880A438280704702894FF672
:10322000F8731A40028102890A43028170470289B9
:103230004FF67F731A40028102890A430281704768
:103240008184704781857047818670470187704708
:1032500081877047A0F84010704702884FF6FF43FF
:103260001A40028002880A43028070470146888E15
:1032700070470146088F70470146888F70470146A6
:10328000B1F8400070470146888C70470146088DB0
:10329000704702460020138A0B400BB1012000E06A
:1032A00000207047CA430282704730B502460020B2
:1032B00000230024158A05EA0103958905EA010423
:1032C00013B10CB1012000E0002030BDCA430282DE
:1032D0007047000001684FF6FE7211400160002146
:1032E000016041608160C1608D49884208D18C498C
:1032F0000839496841F00F01894A083A51608AE06B
:1033000087491431884208D185490839496841F014
:10331000F001834A083A51607DE0814928318842B2
:1033200008D17F490839496841F470617C4A083AFC
:10333000516070E07A493C31884208D178490839B7
:10334000496841F47041764A083A516063E0744933
:103350005031884208D172490839496841F47021D6
:103360006F4A083A516056E06D496431884208D18D
:103370006B490839496841F47001694A083A51605B
:1033800049E067497831884208D165490839496878
:1033900041F07061624A083A51603CE061498842FC
:1033A00006D1011F096841F00F01021F116032E0D0
:1033B0005C491431884208D15A49091F096841F013
:1033C000F001584A121F116025E056492831884201
:1033D00008D15449091F096841F47061514A121F0C
:1033E000116018E04F493C31884208D14D49091F0E
:1033F000096841F470414B4A121F11600BE04949C2
:103400005031884207D14749091F096841F47021AA
:10341000444A121F1160704710B50022026847F637
:10342000F0739A430C6A8B6823430C6923434C69FD
:1034300023438C692343CC6923434C6A23438C6A1E
:1034400023431A430260CB6843600B6883604B6878
:10345000C36010BD0021016041608160C1600161F5
:1034600041618161C161016241628162704721B144
:10347000026842F00102026004E002684FF6FE7347
:103480001A40026070471AB103680B43036002E000
:1034900003688B430360704741607047014648688A
:1034A00080B2704701460020002201F080531BB11A
:1034B0001C4B083B1A6802E0194B083B1A6802EAE9
:1034C00001030BB1012000E00020704700F08051A3
:1034D00019B11449091F086002E011490839486010
:1034E000704701460020002201F080531BB10D4BB4
:1034F000083B1A6802E00A4B083B1A6802EA01031B
:103500000BB1012000E00020704700F0805119B19C
:103510000449091F086002E0014908394860704702
:103520000800024008040240064880470648004759
:10353000FEE7FEE7FEE7FEE7FEE7FEE7FEE7FEE763
:10354000FEE7FEE783130008ED000008D2B201E0B9
:1035500000F8012B491EFBD270470022F6E710B598
:1035600013460A4604461946FFF7F0FF204610BDF1
:1035700030B505462A460B4612F8010B13F8014BED
:1035800008B1A042F8D01CB1002802D06D1CF1E7B0
:10359000284630BDCAB2401E10F8011F8A4202D030
:1035A0000029F9D100207047421C10F8011B0029A6
:1035B000FBD1801A7047F0B480EA0102D40F4200B8
:1035C000B2EB410F02D20246084611464A0042D0F1
:1035D000C30DDDB2C1F3C752AD1A202D35DAC1F3E8
:1035E000160141F4000204B15242C5F1200602FA6C
:1035F00006F12A411044B3EBD05F23D0C4B1012DB2
:10360000A0EBC35009DCF0BC4FF0004202EAC35209
:10361000DBB200F5000000F05FBA400000F18070FE
:1036200000EBC350A0F1807040EAD170490009E07E
:10363000490841EAC071A0EBC35000F50000400802
:1036400000EBC350F0BC00F03EBA6142012202EB35
:103650004101001BF6E7F0BC704781F00041AAE78A
:1036600080F00040A7E780EA010210B502F00043B5
:10367000400022D04A001FD0010E01EB1261C0F3BE
:103680005600C2F3560240F4000042F40002A0FBD0
:10369000022000047F39140400D0401C50EA12407C
:1036A00001D44000491EC2B20C0604EBD010401CED
:1036B0004008802A02D003E0002010BD20F0010065
:1036C000002900DA0020184310BD30B480EA01025E
:1036D00002F0004530F0004221F0004013D090B1DC
:1036E000C30DD40DC2F31601C0F31600E41A41F461
:1036F000000140F400027D34914201D3641C00E0DB
:103700004900002C02DA30BC002070474FF4000062
:103710000023914201D3891A034340084FEA410133
:10372000F7D151B1914202D14FF0004105E002D2F0
:103730004FF0010101E06FF0010103EBC450284498
:1037400030BC00F0C0B92DE9FE4F81EA030404F05B
:10375000004421F0004100944FF0000B23F000439F
:1037600050EA01045ED052EA03045BD0C3F30A546A
:10377000C1F30A552C44A4F2F3340194A0FB025483
:10378000C1F3130141F48011C3F3130343F4801315
:1037900001FB024400FB034E840A970A44EA815469
:1037A00047EA8357A4FB076802958D0A05FB078546
:1037B0004FEA932C04FB0C542705029D4FEA065850
:1037C00047EA1637B5EB08056EEB070C870E920E2D
:1037D00047EA811742EA8312A7FB0201B6EB0B010D
:1037E00064EB00042B0D43EA0C335E1844EB1C50D1
:1037F000DA465146E7FB0201C5F313044FEA0B33E7
:1038000043EA14534FEA0432019C43EA0603A4F14D
:103810000C040294009CCDE900B400F09AF903B0C6
:10382000BDE8F08F00200146F9E72DE9F04D81EA6F
:10383000030404F0004B21F0004514464FF0000A49
:1038400023F0004150EA050220D054EA01021DD0C5
:10385000C5F30A570246C5F31303C1F31300C1F3BE
:103860000A5640F4801543F48013A7EB0608101B9A
:10387000D64608F2FD3873EB050002D308F10108C3
:1038800001E092185B41B8F1000F03DA0020014615
:10389000BDE8F08D00204FF48011064684460EE00E
:1038A000171B73EB050705D3121B63EB05030643D8
:1038B0004CEA010C49084FEA300092185B4150EA8B
:1038C0000107EDD152EA030012D082EA040083EA34
:1038D0000501084305D0101BAB4106D2012200238D
:1038E00006E000224FF0004302E06FF001025310A7
:1038F0001AEB06004CEB085110EB0A0041EB0B01F0
:10390000BDE8F04D00F016B996230022114600F0F4
:10391000E3B8C1F30A5210B5C1F3130140F2FF330B
:1039200041F480119A4201DA002010BD40F2334385
:103930009A42A2F2334203DC524200F0B4F810BDC6
:10394000904010BD00F0004230F000400AD0C10DA0
:1039500001F56071C0F3160042EA0151C208400748
:1039600011437047002001467047000030B5041E27
:1039700071F1000404DB4FF00044404264EB0101AC
:10398000141E73F1000405DB1C464FF00043524245
:1039900063EB04038B4208BF824230BD30B5041E86
:1039A00071F1000404DB4FF00044404264EB01017C
:1039B000141E73F1000405DB1C464FF00043524215
:1039C00063EB0403994208BF904230BD01F000430D
:1039D00030B421F0004150EA010206D00A0DA2F5F0
:1039E0006072C1F31301002A02DC30BC0020704772
:1039F000440F44EAC104C100E01830BC00EBC250DF
:103A000000F061B8002801DBC0F10040002901DBB3
:103A1000C1F100418142704730B50B46014600209C
:103A20002022012409E021FA02F59D4205D303FA80
:103A300002F5491B04FA02F52844151EA2F1010201
:103A4000F1DC30BD2DE9F05F0546002092469B4633
:103A500088460646814640241BE0284641464746A4
:103A6000224600F020F853465A46C01A914110D31E
:103A700011461846224600F08BF92D1A67EB010813
:103A80004F4622460120002100F082F917EB000981
:103A90004E41201EA4F10104DFDC484631462A468F
:103AA0004346BDE8F09F202A04DB203A21FA02F0C9
:103AB0000021704721FA02F3D040C2F12002914068
:103AC0000843194670470029A8BF7047401C4900A9
:103AD00008BF20F00100704710B4B0FA80FC00FA73
:103AE0000CF050EA010404BF10BC704749B1CCF19E
:103AF000200421FA04F411FA0CF118BF012121432A
:103B00000843A3EB0C01CB1D4FEA00614FEA1020E4
:103B100042BF002010BC704700EBC3501044002986
:103B2000A4BF10BC7047401C490008BF20F0010032
:103B300010BC704710B5141E73F1000408DA401C65
:103B400041F1000192185B411A4301D120F00100BC
:103B500010BD2DE9F04D92469B4611B1B1FA81F2AC
:103B600002E0B0FA80F22032904600F011F90446EB
:103B70000F4640EA0A0041EA0B0153465A46084301
:103B800013D0114653EA010019D0C8F14002504643
:103B9000FFF789FF05460E4650465946424600F05B
:103BA000F7F8084305D0012004E020463946BDE877
:103BB000F08D0020054346EAE0762C4337430A980F
:103BC0006305E40AA0EB08000022FD0A44EA47541A
:103BD0000A3002D500200146E9E7010510196941C4
:103BE000DDE9084500196941BDE8F04DA2E72DE97E
:103BF000FE4F804681EA0300C00F0C46009021F082
:103C0000004123F00045B8EB0200A94105D240462F
:103C1000214690461C460B46024623F000401043C6
:103C200047D0270DC7F30A00C3F30A510290401A88
:103C3000019040286BDAC3F3130040F4801B009816
:103C4000924620B10023D2EB030A63EB0B0B0198E1
:103C50005946C0F14002504600F09AF806460D461B
:103C600050465946019A00F0A2F810EB0800614155
:103C7000002487EA115284EAE7731A4340D0009A7D
:103C800062B3019A012A4FEA075215DC001B61EB6F
:103C900002014FF0004202EA0752CDE90042001C47
:103CA00041F5801132462B46FFF753FF03B0BDE8C4
:103CB000F08F40462146F9E7001B61EB0201001C32
:103CC00041F5801300185B412018A2F5001747EB5F
:103CD000030140EAD570B6196D4111E06D084FEA55
:103CE000360645EAC0754FEA0752001B61EB020138
:103CF000001C41F5801149084FEA3000001951417C
:103D000032462B4603B0BDE8F04FFFF713BF0098D3
:103D1000012240000023D0EB020263EBE073009825
:103D200021464FEAE074B8EB000061EB0401E9E7DB
:103D300083F000435BE781F0004158E7C1F30A528A
:103D4000C1F3130140F2FF3341F480119A4202DAC9
:103D500000200146704740F233439A42A2F23342B8
:103D600002DC5242FFF79FBE00F012B8064C074D2E
:103D700006E0E06840F0010394E80700984710343B
:103D8000AC42F6D3FCF7B6F9CC470008EC47000884
:103D9000202A04DB203A00FA02F10020704791400B
:103DA000C2F1200320FA03F3194390407047202A00
:103DB00006DBCB17203A41FA02F043EAE07306E053
:103DC00041FA02F3D040C2F1200291400843194663
:103DD000704700000FB4054B10B503A9044A0298C0
:103DE00000F016F910BC5DF814FB0000CB0F0008C2
:103DF000180000200FB4084B10B504A902AA0398BC
:103E000000F006F9044602A9002000F0A3FC2046B9
:103E100010BC5DF814FB0000554700087CB5044653
:103E200000201D46164600290BD0491ECDE9004151
:103E3000044B6A462946304600F0EAF8009A002111
:103E400011707CBD3F47000837B514460846064B45
:103E50006A46214600F0DCF804466946002000F07E
:103E600079FC20463EBD00005547000802E008C826
:103E7000121F08C1002AFAD170477047002001E0E4
:103E800001C1121F002AFBD1704700002DE9FF5F1E
:103E900082B00021DDE90430020DDDF840B00343BB
:103EA00018D044F61050A2F2FF3242431514119874
:103EB00001281FD0A5EB0B00401C5FEA000A4FF061
:103EC00000064E4FDFF83891B046504615D5CAF17E
:103ED000000413E0119801244AA3012801D16FEADC
:103EE0000B010298119AC0E90031C0E9024206B004
:103EF000BDE8F09FCBF10000DFE704460021404A17
:103F0000491842EB0450CDE9001012E0E00707D059
:103F100032463B4640464946FFF715FC80468946F7
:103F200032463B4610461946FFF70DFC06460F4643
:103F30006410002CEAD1DDE90401DDE90023BAF1C7
:103F4000000F06DAFFF7FFFB42464B46FFF7FBFB8D
:103F500005E0FFF76AFC42464B46FFF766FC044665
:103F60000E460022284BFFF719FD03D84FF0FF3013
:103F7000014607E00022254B20463146FFF737FE79
:103F8000FFF7DCFE102409E0002C0ADB0A220023E4
:103F9000FFF758FD039B30321A55641E50EA0102A8
:103FA000F2D1641C039AC4F111031444119A012A3A
:103FB00003D0012208430DD10AE0084304D00020B9
:103FC0004FF0110B119072E7A3EB0B056D1E0DE086
:103FD0005B4504DD4FF0000205F1010504E003DA62
:103FE0004FF00002A5F10105002AECD002981199CA
:103FF000C0E90231C0E9004579E700000000144043
:104000000000F03F300000000000F0430000E03FFF
:104010002DE9FF4F95B09B468946064600250FE2E5
:10402000252877D100242746F84A0121059400E08D
:10403000044316F8013F203B01FA03F01042F7D188
:1040400030782A2811D06FF02F033078A0F1300299
:10405000092A16D8059A44F0020402EB820203EB07
:1040600042021044761C0590EFE759F8042B0592A4
:10407000002A03DA504244F40054059044F002044C
:10408000761C30782E2816D116F8010F44F004045F
:104090002A280DD06FF02F023078A0F13003092BC1
:1040A00009D807EB870302EB4303C718761CF3E735
:1040B00059F8047B761C30786C280FD006DC4C282D
:1040C00017D068280DD06A2814D104E0742810D0C5
:1040D0007A280FD10DE044F400140AE044F480146F
:1040E00001E044F440147278824202D104F5801455
:1040F000761C761C307866280BD013DC582877D0D5
:1041000009DC002875D04528F6D04628F4D0472889
:104110001AD19DE118E0632835D0642879D065284C
:1041200012D195E1702873D008DC6728F1D0692896
:104130006FD06E280DD06F2806D1B5E073282CD033
:10414000752875D0782874D05A46179990476D1CF9
:1041500075E1C4F30250022809D003280DD0D9F824
:10416000001004280DD00D6009F1040967E1D9F8A9
:104170000010EA17C1E90052F6E7D9F800100D80E7
:10418000F2E70D70F0E719F8041B8DF8001000201D
:104190008DF80100EA46012003E059F804AB4FF026
:1041A000FF3061074FF0000102D40DE008F101017A
:1041B0008846B9420FDA8045F8DB1AF80810002962
:1041C000F4D108E008F1010188468142FADB1AF8CF
:1041D00008100029F6D105985B46A0EB0807214698
:1041E0003846179A00F094FA284400EB080507E0D7
:1041F0004DE029E10DE01AF8010B5A461799904756
:10420000B8F10108F7D25B4621463846179A13E108
:1042100042E00A220092C4F302524FF0000A022A3E
:1042200008D059F804CB032A4FEAEC710AD00DE00C
:1042300029E02AE009F1070121F00702F2E802C1B2
:10424000914609E00FFA8CFC4FEAEC71042A03D185
:104250004FFA8CFC4FEAEC71002907DA0A4600217C
:10426000DCF1000C61EB02012D2202E0220504D5F5
:104270002B228DF80420012203E0E20701D0202246
:10428000F7E7904659E00A2102E010220DE01021E4
:104290004FF0000A00910BE010224FF0000A44F0AA
:1042A00004040827009203E008224FF0000A00925D
:1042B000C4F30252022A05D059F804CB0021032A84
:1042C00008D009E009F1070121F00702F2E802C174
:1042D000914605E01FFA8CFC042A01D10CF0FF0C7A
:1042E0004FF00008220728D5702806D0009B83F0E5
:1042F000100353EA0A0305D00EE040228DF8042093
:10430000012208E05CEA010206D030228DF8042088
:104310008DF8050002229046009B83F0080353EAC3
:104320000A030AD15CEA010201D1620705D53022F5
:104330008DF804204FF001087F1E582804D034A0C7
:1043400003900EA802900DE036A0F9E753466046B0
:10435000009AFFF777FB84460398825C0298401E20
:10436000029002705CEA0100F0D1029806A9081AD6
:1043700000F1200A600702D524F4803400E0012710
:10438000574502DDA7EB0A0000E0002000EB0A0120
:10439000009005984144401A0590E00306D45B461E
:1043A0002146179A059800F0B3F90544002706E066
:1043B00001A85A46C05D179990476D1C7F1C474560
:1043C000F6DBE0030CD55B462146179A059800F012
:1043D0009FF9054404E030205A46179990476D1C18
:1043E0000099481E00900029F5DC08E00298029927
:1043F0005A460078491C0291179990476D1CBAF1F2
:104400000001AAF1010AF1DC65E1000009280100C0
:10441000303132333435363738396162636465663A
:1044200000000000303132333435363738394142FC
:10443000434445460000000000F058F90544761C4E
:10444000307800287FF4ECAD19B02846BDE8F08F35
:10445000620700D4062709F1070222F0070CFCE8E6
:104460000223E14603F000485FEA080C02D00FF295
:10447000702C0DE05FEA045C02D50FF2682C07E0B7
:104480005FEAC47C02D00FF2602C01E0AFF2700C46
:104490004FF0FF3823F00043CDF850C065280CD012
:1044A00006DC452809D046281DD047283DD13DE0EF
:1044B000662818D067287ED138E00021112F01DB53
:1044C000112000E0781CCDE9000106A90EA8FFF735
:1044D000DDFCDDE90F010E9A03910021009207F146
:1044E000010A04914DE04FF000400097CDE9011022
:1044F00006A90EA8FFF7CAFCDDE90F0203920E9B86
:1045000011990022DDF80CA00093049211B9791CD6
:1045100000EB010AB7EB0A0004D4C0F1FF3007F149
:10452000010A0490AAEB0700019044E0012F00DA91
:1045300001270021112F01DD112000E03846CDE9CF
:10454000000106A90EA8FFF7A1FCDDE90F010E9AF4
:104550000391002104910092BA4621070CD40399DB
:10456000514500DA8A46BAF1010F05DD009AAAF139
:104570000101515C302908D0B84202DA10F1040F71
:1045800006DA0121CDE9011015E0AAF10101E9E700
:10459000002805DC049901440491AAEB000102E023
:1045A000411C514500DD8A460499401A401C019087
:1045B0004FF000400290200704D40198504501DBE1
:1045C000CDF8048000208DF84F0002980DF14F07C0
:1045D000B0F1004F25D02B200E9002984FF002082A
:1045E00000280CDA404202902D200E9007E00A21AC
:1045F0000298FFF711FA3031029007F8011DB8F167
:104600000001A8F10108F2DC02980028EFD1791E20
:104610000E980870307800F0200040F0450007F850
:10462000020D12A8C01B00F107081498007800B111
:10463000012000EB0A01019801EBE071059841446B
:10464000401A401E0590E00306D45B462146179AA7
:10465000059800F05DF805441498007818B15A46A2
:10466000179990476D1CE00324D55B462146179AA5
:10467000059800F04DF805441CE00498002807DB7D
:10468000DDE90301884203DD0098405C179901E0F1
:10469000179930205A469047049805F10105401CAF
:1046A00004900198401E019004D12E205A4617997B
:1046B00090476D1CBAF10001AAF1010ADDDC05E0AA
:1046C00017F8010B5A46179990476D1CB8F1000175
:1046D000A8F10108F4DC5B462146179A0598ABE681
:1046E0002D0000002B000000200000002DE9F0410B
:1046F000044600251E461746880404D405E03946C2
:104700002020B0476D1C641EF9D52846BDE8F08115
:104710002DE9F041044600251E469046C80301D508
:10472000302700E02027880404D505E041463846BC
:10473000B0476D1C641EF9D52846BDE8F0814A6873
:10474000002A06D00A68531C0B6010704868401E8F
:10475000486070470A68531C0B6010707047000077
:104760007454256864730D0A745A41313A252E3306
:1047700066410D0A50313A252E33664B570D0A56C5
:104780003A2564560D0A7A5941323A252E3366414C
:104790000D0A50323A252E33664B570D0A563A25EC
:1047A00064560D0A795841333A252E3366410D0A75
:1047B00050333A252E33664B570D0A563A25645628
:1047C0000D0A78256425642564000000EC47000884
:1047D00000000020480000006C3E0008344800083B
:1047E00048000020900800007C3E00080300000004
:1047F00000000101000000000000000000000000B7
:1048000000000000000000000000000000A24A04B8
:104810000000000000000000010203040607080970
:104820000000000001020304010203040607080956
:044830000204060870
:04000005080000ED02
:00000001FF
